:1000000010C028C075C1BEC125C024C023C022C0F5
:1000100038C120C01FC01EC01DC01CC01BC01AC0DC
:1000200019C011241FBECFEDCDBF10E0A0E6B0E097
:10003000E8EEF3E002C005900D92A439B107D9F7BC
:1000400020E0A4E9B0E001C01D92A03AB207E1F7B8
:100050008FD0C8C1D5CF0F931F93CF93DF9310924A
:1000600095000AE010919500143080F4C12FD0E083
:10007000CE01A2D1FE01E057FF4F80838081843101
:1000800008F000831F5F10939500ECCF84E090E0B0
:1000900093D180939700809197008F5F8093970012
:1000A00080919700843010F0109297006091970033
:1000B00084E090E089D1E0919000F0E0EE0FFF1F26
:1000C000E05AFF4F8081918190938900809388004E
:1000D000E0919100F0E0EE0FFF1FE05AFF4F8081AA
:1000E000918190938B0080938A008091920090E0A0
:1000F000880F991F90938D0080938C0080919300BE
:1001000090E0880F991F90938F0080938E002BB3FF
:100110003091970081E090E0032E01C0880F0A948F
:10012000EAF7282B2BBBDF91CF911F910F910895F8
:100130008FE68ABB17BADD9A88B3836088BB949A2E
:1001400080B5836080BD8BB780638BBF82E083BF47
:1001500082E88FBD8AE18EBD81E08CB984E190E0B8
:100160009BBD8ABD88E290E095BD84BD78940895DA
:1001700072DFDEDF42E380919600882309F440C0FD
:1001800080919600E0919700F0E0E057FF4F8130BA
:1001900059F48081833198F4E0919700F0E0E057C2
:1001A000FF4F80818F5F0AC08081882341F0E091FA
:1001B0009700F0E0E057FF4F80818150808380916D
:1001C0009700E0919700F0E0A0919700B0E0A05771
:1001D000BF4F823048F4AC91B0E0AA0FBB1FA05AC9
:1001E000BF4F8D919C9104C08C9190E0880F991F16
:1001F000EE0FFF1FE857FF4F918380831092960008
:1002000040939400B29908C080919400882321F013
:100210008F5F80939400F6CF4093940012BE20919C
:100220009400B29B06C0222321F02F5F20939400FC
:10023000F6CF82B790E090939900809398002223A4
:1002400009F499CF209198003091990080918E0007
:1002500090918F002817390708F08DCF20919800D2
:100260003091990080918C0090918D0082179307B6
:1002700008F081CF80919800909199009BBD8ABD34
:100280007ACF1F920F920FB60F9211242F933F93A4
:100290008F939F9380919C0090919D0001969093E5
:1002A0009D0080939C0020919C0030919D00809146
:1002B0009E0090919F008217930788F48BB390E281
:1002C00089278BBB10929D0010929C0080919A0010
:1002D00090919B00019690939B0080939A009F9130
:1002E0008F913F912F910F900FBE0F901F901895F7
:1002F0001F920F920FB60F9211242F933F938F935B
:100300009F9380919A0090919B00892BA1F420915A
:100310009E0030919F008091880090918900821703
:10032000930748F480919E0090919F0001979093CD
:100330009F0080939E0080919A0090919B0002976D
:10034000A0F020919E0030919F0080918A009091B2
:100350008B002817390748F480919E0090919F00E8
:10036000019690939F0080939E0010929B001092A4
:100370009A009F918F913F912F910F900FBE0F90F8
:100380001F9018951F920F920FB60F9211248F9302
:100390008091960081110AC0B19903C081E08093D9
:1003A0009600B09903C082E0809396008F910F90E1
:1003B0000FBE0F901F901895E199FECF1FBA8EBB0C
:1003C000E09A99278DB30895262FE199FECF1CBAA4
:1003D0001FBA8EBB2DBB0FB6F894E29AE19A0FBEFE
:0803E00001960895F894FFCF87
:1003E800EE027701FA00BC0096007D006B005E000B
:1003F80053004B003F0036002F002A002600220041
:100408001F001D001B001900EE021B001400140041
:0404180000140A0AB8
:00000001FF
