S018000066616E636F6E74726F6C6C65722D76322E73726563BE
S113000010C050C3D9C104C225C024C0CAC122C073
S1130010DDC2BCC11FC094C11DC01CC01BC01AC01E
S113002019C011241FBECFEDCDBF10E0A0E6B0E093
S1130030E2EBF7E002C005900D92AC38B107D9F7B6
S113004020E0ACE8B0E001C01D92A43AB207E1F7A9
S1130050A9D0ADC3D5CF80E090E093D3809389003D
S113006080918900843118F08AE08093890081E0CE
S113007090E087D38093880080918800843118F0C1
S11300808AE08093880082E090E07BD380938B00A9
S113009080918B00843118F08AE080938B0083E098
S11300A090E06FD380938A0080918A00843118F0A5
S11300B08AE080938A0084E090E063D380938D008B
S11300C080918D008F5F80938D0080918D008430AE
S11300D010F010928D0060918D0084E090E059D36F
S11300E0E0918B00F0E0EE0FFF1FE05AFF4F80819C
S11300F0918190939D0080939C00E0918A00F0E0B0
S1130100EE0FFF1FE05AFF4F8081918190939F0073
S113011080939E008091890090E00A9769E170E0E5
S11301200BD393959093A1008093A00080918800B5
S113013090E00A9769E170E0FFD29E5F9093A3007C
S11301408093A2002BB330918D0081E090E0032EC8
S113015001C0880F0A94EAF7282B2BBB08958FE679
S11301608ABB17BADD9A88B3836088BB949A80B53A
S1130170836080BD8BB780628BBF81E083BF83E0E7
S113018089BF99E196BF92E09FBD9BE19EBD8CB96A
S113019084E690E09BBD8ABD84EF91E095BD84BD6B
S11301A07894089558DFDBDFC6E0D0E01FE080914B
S11301B08C008823E1F380918D00813089F138F03F
S11301C0823009F456C0833009F47DC0A5C0809103
S11301D08C00813049F480918900833128F4809126
S11301E089008F5F8093890080918C00823049F46C
S11301F080918900882329F080918900815080931F
S113020089008091890090E00A9769E170E094D2B6
S113021093959093A1008093A000C09189007CC025
S113022080918C00813049F480918800833128F4D6
S1130230809188008F5F8093880080918C00823049
S113024049F480918800882329F0809188008150A6
S1130250809388008091880090E00A9769E170E0BB
S11302606BD29E5F9093A3008093A200C0918800FC
S113027053C080918C00813049F480918B0083318C
S113028028F480918B008F5F80938B0080918C0089
S1130290823049F480918B00882329F080918B006F
S11302A0815080938B00E0918B00F0E0EE0FFF1FF4
S11302B0E05AFF4F8081918190939D0080939C0030
S11302C0C0918B0029C080918C00813049F48091C9
S11302D08A00833128F480918A008F5F80938A009A
S11302E080918C00823049F480918A00882329F01F
S11302F080918A00815080938A00E0918A00F0E026
S1130300EE0FFF1FE05AFF4F8081918190939F0071
S113031080939E00C0918A0080918D006C2F90E0A4
S113032038D28FE097E20197F1F700C000001092F5
S11303308C008AB780628ABF8BB381278BBB37CF8F
S11303401F920F920FB60F9211242F938F939F93A6
S1130350DE9A80919000909191000196813127E27C
S1130360920728F4909391008093900007C0109214
S113037091001092900081E080938F009F918F9163
S11303802F910F900FBE0F901F9018951F920F92F0
S11303900FB60F921124DE980F900FBE0F901F908E
S11303A018951F920F920FB60F921124DD980F909B
S11303B00FBE0F901F9018951F920F920FB60F92B9
S11303C011248F939F93CC9B1CC080918E0081300D
S11303D031F482E080938E001DBC1CBC12C08230BC
S11303E081F483E080938E008CB59DB590939B003F
S11303F080939A008BB78F7E8BBF84E399E49DBD75
S11304008CBD9F918F910F900FBE0F901F901895E8
S11304101F920F920FB60F9211248F9380918C002C
S113042081110AC0B19903C081E080938C00B09916
S113043003C082E080938C008F910F900FBE0F90C9
S11304401F9018958BE18EBD10928E0010928F0034
S113045080919A0090919B00019649F480919C00B0
S113046090919D00909399008093980036C02091BC
S11304709A0030919B0080919C0090919D0082177E
S1130480930728F480919C0090919D0014C02091C2
S11304909A0030919B0080919E0090919F002817B4
S11304A0390728F480919E0090919F0004C08091A8
S11304B09A0090919B00909399008093980080916A
S11304C098009091990095BD84BD80919800909179
S11304D09900969587959BBD8ABD60919200709115
S11304E09300CB01815091408E3F9E4F40F4809108
S11304F09600909197008F3F2FEF920769F58091B6
S1130500A0009091A1008F3F910509F010F481E0C3
S113051090E0909395008093940080919400909142
S113052095008115924030F08FEF90E09093950004
S11305308093940080919400909195008F3F910551
S113054039F030F08F5F9109909395008093940077
S11305508091940086BF0895769567957695679502
S1130560709393006093920056E0880F991F5A95F8
S1130570E1F7F3D0FB0170939500609394006091D0
S1130580A0007091A10080E490E08E1B9F0BD4D05A
S11305909C016091A2007091A300CF01CDD0280FDF
S11305A0391F66E0369527956A95E1F7213081E099
S11305B0380738F0211582E0380728F02FEF31E0B2
S11305C002C021E031E03A9526BF08951F920F92B0
S11305D00FB60F9211242F933F934F935F936F9312
S11305E07F938F939F93AF93BF93EF93FF938091E8
S11305F08F00811102C0DD9A44C080918E00833047
S113060068F4813008F5DD9881E080938E008EE3F4
S113061099E495BD84BD8BB7806132C0833001F10C
S1130620873078F58BB78F7B8BBF8FEF9FEF9093DD
S1130630930080939200909397008093960087E0B4
S113064080938E00FFDE1DC083E080938E008BB705
S11306508F7E8BBF8FEF9FEF90939B0080939A00C8
S113066084E080938E0089E18EBD87E791E095BD9B
S113067084BD1DBC1CBC85B7836085BF8BB78064FB
S11306808BBFFF91EF91BF91AF919F918F917F911C
S11306906F915F914F913F912F910F900FBE0F90EB
S11306A01F9018951F920F920FB60F9211242F933B
S11306B03F934F935F936F937F938F939F93AF93E6
S11306C0BF93EF93FF9380918E00853041F0863085
S11306D0A9F0843001F51DBC1CBC85E00CC08CB5B0
S11306E09DB590939300809392001DBC1CBC85B76C
S11306F08E7F85BF86E080938E000DC08CB59DB53E
S113070090939700809396008BB78F7B8BBF87E085
S113071080938E0097DEFF91EF91BF91AF919F91EF
S11307208F917F916F915F914F913F912F910F9096
S11307300FBE0F901F9018950024552704C0080E73
S1130740591F880F991F009729F076956795B8F37C
S11307507105B9F7802D952F0895AA1BBB1B51E194
S113076007C0AA1FBB1FA617B70710F0A61BB70B1D
S1130770881F991F5A95A9F780959095BC01CD01C2
S11307800895E199FECF1FBA8EBBE09A99278DB3E5
S11307900895262FE199FECF1CBA1FBA8EBB2DBB3C
S11307A00FB6F894E29AE19A0FBE01960895F89470
S10507B0FFCF75
S11307B24C1DA60EC4095307DC05E2042F04AA0348
S11307C24103EE0271021802D501A101770155011C
S10F07D2390120010C0100000A0A0A0A87
S9030000FC
